:020000040800F2
:1000000018FD0020450200086F4A00087D24000802
:100010006D4A0008251A00088575000800000000D8
:10002000000000000000000000000000676D0008F4
:10003000F91E000800000000355400087B6F00081E
:100040005F0200085F0200085F0200085F0200080C
:100050005F0200085F0200085F0200085F020008FC
:100060005F0200085F0200085F0200085F020008EC
:100070005F0200085F0200085F0200085F020008DC
:100080005F0200085F0200085F0200085F020008CC
:100090005F0200085F0200085F0200085F020008BC
:1000A0005F0200085F0200085F0200085F020008AC
:1000B0005F0200085F020008F97100085F02000893
:1000C0005F0200085F0200085F0200085F0200088C
:1000D0005F020008D57300085F0200085F02000895
:1000E0005F0200085F0200085F0200085F0200086C
:1000F0005F0200085F0200085F0200085F0200085C
:100100005F0200080D5900085F0200085F02000846
:100110005F0200085F020008357200085F020008F5
:100120005F0200085F0200085F0200085F0200082B
:1001300000F002F800F076F80AA090E8000C824483
:100140008344AAF10107DA4501D100F06BF8AFF260
:10015000090EBAE80F0013F0010F18BFFB1A43F0A5
:100160000103184784DE0000A4DE00000A444FF0BB
:10017000000C10F8013B13F0070408BF10F8014B06
:100180001D1108BF10F8015B641E05D010F8016B4B
:10019000641E01F8016BF9D113F0080F1EBF10F8AF
:1001A000014BAD1C0C1B09D16D1E58BF01F801CBD2
:1001B000FAD505E014F8016B01F8016B6D1EF9D555
:1001C0009142D6D37047000000230024002500266A
:1001D000103A28BF78C1FBD8520728BF30C148BFAA
:1001E0000B60704766290BF0B982642900F0DE804D
:1001F000752900F0DB80782900F01481632900F074
:100200009285732900F09785002070471FB500F094
:10021000DBFD0400002000210AF020FCE0601FBD8F
:1002200010B510BD00F0D4FE1146FFF7EFFF08F047
:10023000B7FD00F0F2FE03B4FFF7F2FF03BC07F0D6
:100240002AFB00000948804709480047FEE7FEE70F
:10025000FEE7FEE7FEE7FEE7FEE7FEE7FEE7FEE776
:1002600004480549034A054B704700007D6F0008AC
:100270003101000818F9002018FD002018F90020AD
:10028000704710B54C1084EA530404D54042C1F1C4
:10029000000138BF491E1B4204D55242C3F100037E
:1002A00038BF5B1E00F038FA14F0804F04D0404293
:1002B000C1F1000138BF491E14F0004F04D0524272
:1002C000C3F1000338BF5B1E10BD00000FB404492A
:1002D00010B503AA029800F033FD10BC5DF814FBC2
:1002E0005C0000200FB41CB5074B06AA7B4469468E
:1002F0000090059800F0F5FC0020694600F004FD30
:100300001CBC5DF814FB0000190A000070B504461F
:1003100085690068C10601D5302600E02026C007A7
:1003200007D070BDD4E9012130469047206A401CB7
:1003300020626D1EF6D570BD70B5044685690078E3
:10034000C00707D170BDD4E9012120209047206A61
:10035000401C20626D1EF6D570BD70B50C4605467A
:10036000012A05D02878800600D5EA69002302E03A
:10037000012305E05B1C934202D2E05C0028F9D126
:10038000A869E618C01AA861286A18442862284695
:10039000FFF7BCFF04E0D5E9012114F8010B9047F9
:1003A000B442F8D32846FFF7C7FF70BD2DE9F041EE
:1003B0000646002410687529314616A510D0AFF303
:1003C0000080002802DA404213A507E031688A075E
:1003D00001D512A502E0490704D511A5012401E0C9
:1003E000AFF3008000210A2206F1240709E0B0FBE8
:1003F000F2FCB0FBF2F302FB1C00303078541846DC
:10040000491C0028F3D123462A463046BDE8F04176
:1004100000F0F9B9000000002D0000002B000000E2
:100420002000000070B504460D4621461068AFF369
:1004300000802188090502D50F4A7A4402E00E4A5D
:100440007A440E32002104F1240305E000F00F0687
:100450000009965D5E54491C0028F7D120780023DE
:10046000000704D5702D02D009B1022311322046B5
:10047000BDE8704000F0C7B9FCD700002DE9F05F7F
:10048000894604464FF0000ADFF874B1FB44C0F817
:1004900020A02046E1688847002874D0252806D08F
:1004A000D4E901219047206A401C2062F1E7002630
:1004B0005F462046E16888472028054607DB312D46
:1004C00005D2781910F8200C08B10643F1E7B007FF
:1004D00001D526F00406C4F81CA00027C4F818A013
:1004E0002A2D09D0284607F0CFF938B304EB870846
:1004F000303DC8F8185019E059F8041B204604EBA9
:1005000087029161E1688847012F054618D1E069AB
:10051000002820DA26F020061DE0D8F8180000EBAD
:10052000800005EB40003038C8F818002046E1682C
:100530008847054607F0A8F90028EED1012F0AD018
:100540002E2D08D12046E16888477F1C0546022FE2
:1005500046F02006C4DBA069002803DA404246F0DA
:100560000106A061F00701D026F010066C2D0BD01B
:10057000682D09D04C2D39D06A2D35D0742D35D049
:100580007A2D33D016E038E0E1682F4620468847C0
:10059000B842054609D16C2F26D04FF48060E1683F
:1005A000064320468847054604E06C2F1AD04FF4D6
:1005B000807006430DB3A5F14100192802D82035FB
:1005C00046F400664A462946204626604E46FFF716
:1005D00009FE80B101280BD0F61D26F0070000F1BE
:1005E000080956E74020E4E78020D8E70020D6E756
:1005F00006F104094DE7284652E7206ABDE8F09F5E
:10060000D2D70000032A40F2308010F0030C00F033
:10061000158011F8013BBCF1020F624498BF11F83C
:1006200001CB00F8013B38BF11F8013BA2F10402F5
:1006300098BF00F801CB38BF00F8013B11F003036D
:1006400000F09083083AC0F0088051F8043B083A63
:1006500051F804CBA0E80810F5E7121D5CBF51F873
:10066000043B40F8043BAFF30080D20724BF11F8ED
:10067000013B11F801CB48BF11F8012B24BF00F852
:10068000013B00F801CB48BF00F8012B7047000088
:100690004FF0013C50F8042B51F8043B9A4221D111
:1006A000A2EB0C03934313EACC1317D150F8042B9D
:1006B00051F8043B9A4215D1A2EB0C03934313EA81
:1006C000CC130BD150F8042B51F8043B9A4209D1BA
:1006D000A2EB0C03934313EACC13DBD04FF00000E2
:1006E000704700BFD01A01BAB1FA81F101F01801C8
:1006F00022FA01F0CB40C1F12001DBB2C0B2C01A36
:100700002CFA01F3D11A914311EAC311E6D17047D3
:10071000704770477047704753EA020C00F06980D9
:100720002DE9F04B4FF00006002B1FBFB3FA83F505
:1007300003FA05F424FA05F65E4012BF1643B2FA36
:1007400082F502FA05F4C5F120051EBF22FA05FC68
:1007500044EA0C04203556EA044C4FEA144418BF0E
:10076000641C4FF000084FF00009904271EB030C3D
:1007700039D3002919BFB1FA81F701FA07F6B0FAA7
:1007800080F700FA07F6C7F120071EBF20FA07FC22
:1007900046EA0C062037B6FBF4FCA7EB0507103F32
:1007A00007F01F0BCBF120060CFA0BFB2CFA06F618
:1007B00044BFB3460026202FA4BF5E464FF0000B77
:1007C0005BEA060C08BF4FF0010B19EB0B09ABFB02
:1007D000027C48EB0608C01B06FB02CC0BFB03CCDB
:1007E00071EB0C01C1E70B46024641464846BDE8A5
:1007F000F08B13B54FF000004FF00001AFF3008015
:10080000BDE81C4070472DE9F0470D4699469246D9
:10081000044600F124080168880604D5E06921F047
:100820001001216000E00120A84201DD471B00E02B
:100830000027A1697A1902EB0900081AA061207843
:10084000C00602D42046FFF761FD002608E0D4E987
:1008500001211AF806009047206A401C761C20628D
:100860004E45F4DB2078C0060AD52046FFF74EFD42
:1008700006E0D4E9012130209047206A401C206224
:10088000381EA7F10107F4DC07E0D4E9012118F8CC
:1008900005009047206A401C2062281EA5F1010532
:1008A000F3DC2046FFF748FD2078000602D5022041
:1008B000BDE8F0870120FBE770472DE9FF4F0C46AC
:1008C0001E464FF0FF378BB0D2E90001DDF86080A3
:1008D0000A908A46C1F30A5505B93D4600210846EB
:1008E0004FF00000BAF1000F00F4400005DA00EB11
:1008F00080004FF4400101EA50004FEA9059B9F1ED
:10090000010F00DDB9460A9850EA4A000ED044F6BD
:100910001050A5F2FF3545432F14B8F1000F1ED03B
:100920007542291E1EDDC9F100021CE0B8F1010F5D
:100930004FF0000001D0302103E0F24305E02154E4
:10094000401CB042FBDB30460022002121540B99B1
:10095000C1F80880C1E900200FB0BDE8F08FBD1BD1
:100960006D1CDEE74A4600DA694206A800F0B6FAD6
:1009700006AB93E8070003AB83E8070050460A99EB
:1009800000F054FB8DE80700A0F500501F380090E0
:100990000398002D0ADD42F21F014A460844002355
:1009A00003A90390684600F0BDFD09E0A0F50050E2
:1009B0004A461F38002303A90390684600F0C7FD8C
:1009C0008DE807000004000C03D04FF0FF30410811
:1009D00000E01046B8F1000F03D000220092154647
:1009E0001EE0751E05D400F0F3F9303262556D1E1D
:1009F000F9D5B3460122084302D000227F1C04E04F
:100A00002078302801D100227F1E002A099784D047
:100A10001DE0112D07DA00F0DBF9303262556D1C54
:100A200050EA0102F5D1084302D00098C8B10EE0A7
:100A30000021681E05E0235C625C63542254401E62
:100A4000491C8142F7DBAB46A81B401E09900020E1
:100A500004F80B000B98099AC0F80880C0E9002B35
:100A60007AE711264FF0000857E72DE9F04F884646
:100A70000446D21D22F0070191B0D1E90001CDE971
:100A80000A0106F0EDFE02460B98C00F01D02D20A2
:100A900007E02068810701D52B2002E0202101EA30
:100AA000C000032A099001D0072A05DB034641460E
:100AB000204600F0D3F90BE12078800601D5E069EB
:100AC00000E00620B8F1650F814606D0B8F1660F48
:100AD00018D0B8F1670F70D131E00020B9F1110FD3
:100AE000009001DB112301E009F101030AAA01A929
:100AF0000CA8FFF7E2FEDDE90C70002609F1010504
:100B0000834647E001204B4600904FF000470AAA79
:100B100001A90CA8FFF7D1FEDDE90DB00C995D46E7
:100B2000002610B909F101000D18B9EB050003D436
:100B3000C0F1FF3609F10105A5EB09002BE0B9F181
:100B4000010F01DA4FF001090020B9F1110F0090F7
:100B5000484601DD112300E003460AAA01A90CA8BA
:100B6000FFF7ABFEDDE90C704D460026834620788A
:100B700000070AD4AB4500DA5D4601A8012D04DD6B
:100B8000411911F8011C302907D04F4502DA17F13D
:100B9000040F04DA012082460FE06D1EEEE7002FFD
:100BA00002DCED1B3E4403E0781CA84200DD7D1C06
:100BB000B81B00F1010A4FF000472078000703D46A
:100BC000AA4501DB4FF0FF3A0021B7F1004F0DF1CC
:100BD00043088DF8431024D002202B23002F01DA84
:100BE0007F422D230A21021EA0F1010000DC5FB12B
:100BF00097FBF1FC97FBF1F201FB1C7C17460CF113
:100C0000300C08F801CDEEE7A8F10100037021884F
:100C1000090501D5452100E06521A0F1010800F892
:100C2000011C09980FA9A1EB0807FF1D00B10120C5
:100C3000411901EBEA70A1693844081A401EA0610D
:100C40002078C00602D42046FFF760FB099828B13F
:100C5000D4E901219047206A401C20622078C00618
:100C600022D52046FFF752FB1EE0002E04DBB345E1
:100C700002DD01A8805D00E03020D4E90121904729
:100C8000206A401C2062761CAAF101005FEA000A7B
:100C90000AD100F099F8C0680168405CD4E90121EC
:100CA0009047206A401C2062281EA5F10105DCDC6B
:100CB00007E0D4E9012118F8010B9047206A401C95
:100CC0002062381EA7F10107F3DC2046FFF734FB52
:100CD000032011B041E6000001694A1C0261087856
:100CE000704700B58FB0CDE901310021059105496C
:100CF0007944CDE9031011466846FFF7BFFB0FB0FA
:100D000000BD0000E5FFFFFF0A6802F8010B0A6062
:100D1000704710B5436913B1AFF3008001E0FFF7EE
:100D20001CFB012010BD127800F124010A70002282
:100D30004A700122EDE711684FF0FF32E9E7000049
:100D4000074B70B50D467B44FFF7CBFF04462846A2
:100D500000F036F910B14FF0FF3070BD204670BD85
:100D6000A37E000010B5203AC0F00B80B1E8185007
:100D7000203AA0E81850B1E81850A0E81850BFF485
:100D8000F5AF5FEA027C24BFB1E81850A0E8185024
:100D900044BF18C918C0BDE810405FEA827C24BF78
:100DA00051F8043B40F8043B08BF7047D20728BF06
:100DB00031F8023B48BF11F8012B28BF20F8023B55
:100DC00048BF00F8012B704700487047D8F8002052
:100DD00030B5B0F10A024FEA900E71F100034EEA0D
:100DE000817EB0EB0E0061EB91014FEA101E4EEADE
:100DF000017E10EB0E0041EB11114FEA102E4EEA6E
:100E0000016E10EB0E0041EB11214FEA104E4EEA3D
:100E1000014E10EB0E0041EB1141401841F1000171
:100E20004FEAD00040EA41704FEAD10110EB800553
:100E30004FEA810444EA907444EB01046D1944EBD9
:100E40000404521BA3414FF0000348BF0A3200D5EF
:100E500030BD401C41F1000130BD00002DE9F041E2
:100E60001F46044603260168072A01F4006004DBDC
:100E700008B116A505E016A503E008B115A500E028
:100E800015A521F010002060A069C01EA0610FB15F
:100E9000401EA0612046FFF739FA4FB1D4E9012185
:100EA00038469047206A401C2062C01C206206E041
:100EB000206AFAE7D4E9012115F8010B9047761E64
:100EC000F8D22046FFF738FABDE8F0814E414E00D7
:100ED0006E616E00494E4600696E66002DE9F0476E
:100EE000814616468AB0354878440DC88DE80D0015
:100EF00032487844801C03AC0DC884E80D0041F6EC
:100F00009B300844372190FBF1F290FBF1F5A5F1FD
:100F1000800501FB12041B3C02D56442012000E065
:100F20000020DFF898A080460027FA44AAF1BE0A04
:100F30000EE0E0070AD03246684607EB470101237E
:100F40000AEB810100F003FB8DE8070064107F1CB1
:100F5000002CEED1194F7F44AE3F19E0E80715D0C1
:100F600007EB04100DF1180A90E80E008AE80E0055
:100F7000C068F04201D1981908903246012306A9B1
:100F800003A800F0E4FA03AB83E807006D10641CCB
:100F9000002DE3D14FF0010332466946B8F1000F4E
:100FA00003A802D000F0BEFA01E000F0D0FAC9E9CF
:100FB0000001C9F808200AB0BDE8F08704CE00009F
:100FC000007B00F08000704700487047B8F80020B0
:100FD0007546FFF7F9FFAE4605006946534620F017
:100FE0000700854618B020B5FFF73AF9BDE8204064
:100FF0004FF000064FF000074FF000084FF0000BD5
:1010000021F00701AC46ACE8C009ACE8C009ACE887
:10101000C009ACE8C0098D46704710B50446AFF36F
:1010200000802046BDE81040FFF705B95FEA400C9C
:1010300008BF91F0000F4FEA8C234FEAC12243EA28
:1010400051514FEA1C5018BF00F5F0404FEA3000F4
:1010500018BF41F000415FEA6C5C00F02980BCF1F0
:10106000FF3F08BF40F080407047130C06BF1204DA
:101070004FF0100C4FF0000C130E04BF12020CF1D5
:10108000080C130F04BF12010CF1040C930F04BFE2
:1010900092000CF1020CD30F04BF52000CF1010CB2
:1010A00011464FF00002A0F11F00A0EB0C007047AA
:1010B00011F0004F08BF704731F000413FF4D5AF49
:1010C0000B0C06BF09044FF0100C4FF0000C0B0E78
:1010D00004BF09020CF1080C0B0F04BF09010CF14D
:1010E000040C8B0F04BF89000CF1020CCB0F04BF62
:1010F00049000CF1010CCCF12003A0EB0C0022FA0A
:1011000003F302FA0CF241EA030100F10100704717
:1011100020F07F4C80EA030023F07F47ACEB07030D
:1011200003F57C5300F0004003F1FF032DE98049F3
:101130004FEA154B09B44FEA144325EA0B4E24EA53
:1011400003480FF2042606EB132749083E785FEAAE
:10115000320203FB0667C7F5000707FB06F64FEAF6
:1011600054374FEAD64606F1020607FB066CCCF16F
:10117000005C4FEA1C472CEA074C07FB06F40CFB0B
:1011800006F504EB15464FEA961634BF00204FF0E3
:1011900000404FEAD13706FB07FC4FEA1C4C0CFB22
:1011A0000BF7D21B03FB0CF761EB07010CFB0EF7EF
:1011B000B0EB074072EB17420CFB08F734BFA2EB11
:1011C0000742B2EB074261EB17414FEA0C444FEA8A
:1011D000910706FB07FC4FEA1C4C0CFB0BF7B0EB2E
:1011E000C74072EB573203FB0CF734BFA2EBC74288
:1011F000B2EBC74261EB57310CFB0EF7B0EBC70007
:1012000072EB57720CFB08F734BFA2EBC702B2EBCC
:10121000C70261EB5771039F4FEA816141EA921166
:1012200004EBCC044FEAD1374FEA826206FB07FC9D
:1012300042EA90124FEA80604FEA1C4C0CFB0BF71D
:10124000D21B03FB0CF761EB07010CFB0EF7B0EBB5
:10125000074072EB17420CFB08F734BFA2EB0742C2
:10126000B2EB074261EB17414FEA8C554FEA910709
:1012700004EB9C2406FB07FC4FEA1C4C0CFB0BF711
:10128000B0EBC74072EB573203FB0CF734BFA2EB55
:10129000C742B2EBC74261EB57310CFB0EF7B0EB24
:1012A000C70072EB57720CFB08F734BFA2EBC70202
:1012B000B2EBC70261EB577115EB4C254FEA816128
:1012C00041EA92114FEA82624FEAD13742EA901224
:1012D00006FB07FC44F100044FEA80604FEA1C4C17
:1012E0000CFB0BF7D21B03FB0CF761EB07010CFBAC
:1012F0000EF7B0EB074072EB17420CFB08F734BF58
:10130000A2EB0742B2EB074261EB174115EB1C154C
:101310004FEA813141EA92414FEA823242EA9042F9
:101320004FEA80304FEA0C7644F1000448EA034368
:101330004EEA0B484FF0000EB2EB080C71EB0307BE
:1013400024BF624639464EEB0E0E4FF0000B0018DC
:10135000524149414BEB0B0BB2EB080C71EB03070D
:101360007BF1000B24BF624639464EEB0E0E4FF068
:10137000000B0018524149414BEB0B0BB2EB080C30
:1013800071EB03077BF1000B24BF624639464EEB3D
:101390000E0E51EA020718BF46F0010616EB0E7654
:1013A00055F1000254F1000103D5BDE88901BDE803
:1013B0000088BDE88901BDE80048B619524141EBFB
:1013C0000101A3F10103704780807F7E7D7C7B7AE1
:1013D0007978777676757473727171706F6E6E6DE1
:1013E0006C6C6B6A6A696868676666656464636387
:1013F00062616160605F5F5E5E5D5D5C5C5B5B5A0D
:101400005A59595858575756565555555454535379
:1014100052525251515050504F4F4F4E4E4D4D4DD4
:101420004C4C4C4B4B4B4A4A4A494949484848471F
:10143000474747464646454545444444444343435D
:101440004342424242414141002B9C4630D4770006
:101450002BD01CB54FEA370703B44FF010004FF004
:101460001001BAF1000F06D0BCF1000FDCBF40F054
:10147000080040F008014FF000000FBCBDE810402C
:101480000BF1010BBBF1010F08BF5FEA170722BF89
:1014900012F1010211F101014FF0004143F100038B
:1014A00000F0004043EA00007047F9D35708D0E746
:1014B00046EA064613F1400F4FEA16461FDD13F1C8
:1014C000200FDFBF16430A46002120335B42BED007
:1014D000C3F1200746EA064602FA07F74FEA164626
:1014E00046EA0706C3F1200722FA03F201FA07F7DA
:1014F00021FA03F14FF0000342EA0702A7E746EAA8
:10150000020646EA06464FEA164646EA0106BCBF10
:1015100046EA0646360C4FF000034FF000024FF04B
:10152000000194E72DE9804C9A46934670B491E807
:10153000380007C831EA400C48BF34EA430C03D5F1
:10154000FFF7E6FDFFF780FFF0BCBDE8008C2DE95A
:10155000804C9A46934670B491E8380007C810F062
:10156000804F08BF13F0804F03D100F005F8FFF75C
:101570006BFFF0BCBDE8008C20F07F4780EA0300E1
:1015800023F07F4C07EB0C03A3F57C5300F00040E5
:10159000A3F1FE0392F0000F00F0B38095F0000F6E
:1015A00000F077802DE901494FEA11404FEA1446D7
:1015B00021EA004800FB06FC24EA064708FB06F681
:1015C00007FB08F800FB07F718EB06484CEB164C36
:1015D0004FEA124B18EB07484FEA15464CEB174001
:1015E00022EA0B4E0BFB06FC25EA06470EFB06F62D
:1015F00007FB0EFE0BFB07F71EEB064E4CEB164CE3
:101600004FF000061EEB074E4CEB174B18EB0B0888
:1016100040F1000018EB0E0B58EB000840F1000001
:101620008F1A4FF000013CBFC943661B14BFB5EBD6
:10163000040C00213CBFC943F61B4FEA17444EEA95
:101640008E0E27EA04454FEA1C4704FB07622CEA8A
:10165000074C05FB07F70CFB05F604FB0CFC16EB2F
:10166000074642EB174216EB0C4642EB1C421BEBC3
:10167000060658EB0202414146EA9E0601D5BDE846
:101680000189B619524141EB0101A3F10103BDE803
:1016900001894FEA14454FEA114724EA054621EA39
:1016A000074C05FB07F406FB07F70CFB06F105FBEF
:1016B0000CFC11EB074144EB17444FEA124711EBC6
:1016C0000C4144EB1C4422EA074C05FB07F206FBE5
:1016D00007F70CFB06F605FB0CFC16EB074642EB86
:1016E000174216EB0C4642EB1C456A1854F10001F8
:1016F00048BF7047B619524141EB0101A3F1010304
:10170000704795F0000F37D04FEA11424FEA144767
:1017100021EA024624EA074C02FB07F106FB07F721
:101720000CFB06F402FB0CFC14EB074441EB1741E5
:101730004FEA154714EB0C4441EB1C4125EA074CDA
:1017400002FB07F506FB07F70CFB06F602FB0CFC99
:1017500016EB074645EB174516EB0C4645EB1C42CE
:10176000121951F1000148BF7047B619524141EBBF
:101770000101A3F1010370474FEA14454FEA1147F5
:1017800024EA054621EA074C05FB07F106FB07F7AB
:101790000CFB06F24FF0000605FB0CFC12EB0742B7
:1017A00041EB174112EB0C4251EB1C4148BF704713
:1017B000921841EB0101A3F10103704700298168F0
:1017C00002D041F0010101E021F001018160704788
:1017D0000029816802D041F4807101E021F4807118
:1017E00081607047014600208968490700D50120C3
:1017F0007047014600208968090700D5012070471D
:1018000010B542680E4B0C791A400B6842EA04226C
:101810001343436082680B4B1A40D1E902432343D0
:101820004C7942EA440213438360C26A097C22F481
:101830007002491EC9B242EA0151C16210BD0000E6
:10184000FFFEF0FFFDF7F1FF70B5072609290AD961
:10185000C568A1F10A0404EB4404A640B543A340C3
:101860001D43C56007E0056901EB4104A640B5438F
:10187000A3401D4305611F23072A09D2446B521E52
:1018800002EB820293409C4391400C43446370BD41
:101890000D2A09D2046BD21F02EB820293409C43B3
:1018A00091400C43046370BDC46A0D3A02EB82029E
:1018B00093409C4391400C43C46270BD816841F0E9
:1018C0000801816070470029816802D041F4A001BD
:1018D00001E021F4A00181607047816841F00401BA
:1018E0008160704770B5012192B0480203F0C6FDD7
:1018F0000121042003F0C2FD0121084603F0A6FDEA
:101900004FF4404003F098FD1620ADF8400000244D
:101910008DF8434003258DF8425010A92F4800F060
:10192000DDFC2F4E0122052311463046FFF78CFFC8
:101930000222052311463046FFF786FF05230322C6
:1019400004213046FFF780FF4FF460200B94CDE96F
:101950000D0401218DF831108DF830108DF83C50B8
:101960000BA93046FFF74CFF1D4801A94C300090F1
:101970001C4881E831008020CDE9044040000690F9
:1019800080000790202008900002CDE90904164C41
:101990006946204600F098F90121204600F016F92A
:1019A00001213046FFF714FF01213046FFF706FF03
:1019B0003046FFF783FF3046FFF71BFF0128FAD0C0
:1019C0003046FFF78AFF3046FFF70CFF0128FAD0B8
:1019D00001213046FFF777FF12B070BD00080140CB
:1019E000002401404C0200200800024038B50121CB
:1019F000082003F043FD4FF48074ADF80040102040
:101A00008DF803000320064D8DF802006946284634
:101A100000F064FC2146284600F0E1FC38BD0000DF
:101A2000000C0140FEE770B500254FF4803405E05E
:101A3000802003F059FF08B144B101E0641EF7D2E1
:101A400040F2FF5003F00CFF284670BD032070BD2C
:101A500070B5124C0546616B11F0450FFBD00420A8
:101A600003F042FF20B1042003F0FAFE032070BD12
:101A7000012003F039FF20B1012003F0F1FE012025
:101A800070BD2069A84201D0102070BD40F2FF5007
:101A9000A063606900F0080070BD00000080014094
:101AA00010B500244FF480310E4809E0426B12F06B
:101AB000450F05D009B1500705D5032404200CE0DB
:101AC000491EF3D2F7E7012003F00EFF18B10124FD
:101AD000204603F0C5FE40F2FF5003F0C1FE204651
:101AE00010BD00000080014010B50A49486B10F09D
:101AF000450FFBD0042003F0F7FE20B1042003F0D3
:101B0000AFFE032010BD40F2FF5003F0A9FE0020FD
:101B100010BD0000008001402DE9F0411B4C0E4635
:101B200007460025606B10F0450FFBD0042003F042
:101B3000DBFE28B1042003F093FE0320BDE8F08112
:101B4000012003F0D1FE20B1012003F089FE012025
:101B5000F4E72069B84210D140F2FF5003F080FE54
:101B6000626912F4604F03D0900404D51320E5E7B6
:101B7000100C308007E0500401D51020DEE710047F
:101B800001D50F20DAE72846D8E7000000800140A1
:101B900010B500244FF480320B4809E0416B11F07E
:101BA000450F05D00AB1480705D50324042006E0F7
:101BB000521EF3D2F7E7480603D50024402003F075
:101BC0004FFE204610BD0000008001400029016842
:101BD00002D041F0010102E04FF6FE7211400160B7
:101BE0007047000001684FF6FE721140016000214D
:101BF000016041608160C1603149314A08399042D9
:101C000003D1486840F00F0006E02D4A143290429C
:101C100004D1486840F0F00048607047284A2832F4
:101C2000904203D1486840F47060F5E7244A3C32A2
:101C3000904203D1486840F47040EDE7204A5032AA
:101C4000904203D1486840F47020E5E71C4A6432B2
:101C5000904203D1486840F47000DDE7184A7832BA
:101C6000904203D1486840F07060D5E7154A111FD3
:101C7000904203D1086840F00F0006E0114A143288
:101C8000904204D1086840F0F000086070470D4AA7
:101C90002832904203D1086840F47060F5E7094AA1
:101CA0003C32904203D1086840F47040EDE7054AA9
:101CB00050329042EAD1086840F47020E5E7000015
:101CC000080002400804024030B5026847F6F0738D
:101CD0009A430C6A8B682343D1E904452C43234380
:101CE0008C692343CC6923434C6A23438C6A234386
:101CF00013430360CA6842600A6882604968C16031
:101D000030BD000010B500F0ADF800F051F8CC2067
:101D100000F0C2F8442000F0BFF800F0A3F800F093
:101D200047F8CC2000F0B8F8BE2000F0B5F800F07D
:101D30006DF8044600F06AF8000201B251EA0400AE
:101D400008D5C043401C09F006F96FF0030209F002
:101D500039FD05E009F0FFF80022034B09F026F9F0
:101D6000BDE8104008F090BE0000E43F08B54FF415
:101D70000050ADF8000048208DF803006946024885
:101D800000F0ACFA08BD0000000C014008B54FF4AB
:101D90000050ADF8000010208DF8030003208DF8EE
:101DA00002006946014800F099FA08BD000C0140A4
:101DB00070B50024FFF7DAFF4FF40055124E04E02F
:101DC000641CE4B2012005F09FFF2946304600F074
:101DD000FFFA10B1642CF3D30FE0642C0DD2002471
:101DE00004E0641CE4B2012005F08EFF2946304671
:101DF00000F0EEFA18B1F02C04D3012070BDF02CE5
:101E0000EFD3FAE7002070BD000C01402DE9F0414E
:101E1000002634464FF40057DFF84480FFF7B6FF42
:101E200039464546404600F0DAFA0A2005F06CFFD4
:101E3000FFF79CFF3946284600F0CAFA01280DD06A
:101E400000252D2005F060FFA5403543641CE4B259
:101E5000EEB2082CE2D33046BDE8F0810125F0E770
:101E6000000C014070B5FFF791FF0A4D4FF400548C
:101E70002146284600F0B3FA40F2EE2005F044FF78
:101E80002146284600F0ADFABDE870400F2005F06D
:101E90003BBF0000000C01402DE9F0410546FFF773
:101EA00075FF144E00244FF4005715F0010F4FEA50
:101EB0005505394630460AD000F091FA082005F061
:101EC00023FF3946304600F08CFA3A2009E000F052
:101ED00086FA462005F018FF3946304600F081FAB0
:101EE000022005F011FF641CE4B2082CDDD3BDE82C
:101EF000F0810000000C01407047000010B50E4C4E
:101F000004210120227802F0EDFE627805210120F3
:101F100002F0E8FEA2780621012002F0E3FEE2785A
:101F20000721012002F0DEFE22790821BDE81040E1
:101F3000012002F0D7BE0000A1F800202DE9F041F9
:101F40004E48808809F02AFB6FF00B0109F068FC0D
:101F50004B4909F037FB4B4C4B49206309F032FBEE
:101F600009F00CFA0022494B08F070FE0022484BA1
:101F700008F06CFE08F088FD20620546216909F032
:101F800021FB6062B0F1804F01DDE06900E0A069F3
:101F900020610146284609F015FB05463D49A06829
:101FA00009F01EFA09F0EAF900223B4B09F0FCF8AF
:101FB0003A4A3B4B08F0FAFF00223A4B08F096FDF4
:101FC00008F062FD0146E060284609F009FA606108
:101FD000B0F5000F02DA0020606103E03249884268
:101FE00000DD616160693149064609F0EBFA09F0EC
:101FF000B9FA4FF47A7190FBF1F23032D5B290FB1E
:10200000F1F201FB1200642790FBF7F0284C30300E
:10201000257060702E20A070304609F0A3FA90FB66
:10202000F7F107FB11020A2192FBF1F23032E27064
:1020300090FBF1F201FB1200303020712A4604219E
:10204000032002F04FFE62780521032002F04AFED1
:10205000A2780621032002F045FEE2780721032042
:1020600002F040FE22790821032002F03BFEBDE889
:10207000F04109210FA2032002F068BE4C020020AB
:1020800000404E455402002000007A4400A08940E0
:102090000000694000002041000039408B6CE7FBE4
:1020A000A9F1923F0000F03F0000A0410000C842AB
:1020B000A1F800206D532F636D0000008000A0F197
:1020C000C0400029016802D041F0010101E0024A4C
:1020D0001140016070470000FEFF0F0010B5D0E90D
:1020E00001121143D0E903231A43114342691143FA
:1020F00082691143C2691143026A1143426A114362
:10210000826A1143C26A1143026B11430268920052
:10211000A2F1C04211608168082907D101688900D5
:10212000A1F1C0410A6842F040020A60416BD1E966
:10213000002342EA03128B688C891B0243EA0443A2
:102140001A430B8A42EA03520B7D896942EA036211
:102150000A4301688900A1F1C0414A60C16AB1F532
:10216000804F08D000686FF070418000A0F1C0403F
:10217000C0F8041110BD816BD1E9002342EA0312BB
:102180008B680C8A1B0243EA04531A430B7D89694E
:1021900042EA036200680A438000A0F1C040C0F830
:1021A000042110BD2DE9FC470024494F00944FF055
:1021B000080A019410204FF04009C7F800A0C7E9B1
:1021C00001094FF48068C7E903480E4625463846A2
:1021D00003F0BAFB1020FFF73BFC00284DD13D482F
:1021E0000089000438603720C7E90109C7E90358AE
:1021F000384603F0A9FB3720FFF72AFC00283CD122
:10220000411E07F11400C0E9001A3021816002214B
:10221000C0E903150121416103F03EFB3320C7F8FB
:102220000890C7E90050C7E90358384603F08CFB13
:102230003320FFF70DFC05001FD1DFF89C804FF421
:10224000001A6F4640F22A69D8F8340010EA090FE4
:102250000BD1504603F048FB0028F5D003F06EFB8D
:1022600047F82400641C022CEED3082003F03CFB4A
:1022700028B1082003F0F4FA0420BDE8FC8702200E
:1022800003F032FB20B1022003F0EAFA0220F4E767
:10229000202003F029FB20B1202003F0E1FA0620E2
:1022A000EBE74FF40074204603F01EFB20B12046FC
:1022B00003F0D6FA0720E0E740F2FF5003F0D0FA2F
:1022C000009800BA7060019800BA30602846D4E7E0
:1022D000B80200204400002000800140F0B5CC7816
:1022E000002204F00F03E40601D58C7823430C7818
:1022F0004FF00F0C14F0FF0F4FF0010E1BD00568CC
:102300000E880EFA02F42640A64210D196000CFA6E
:1023100006F725EA070703FA06F5CE783D43282E8F
:1023200002D0482E02D002E0446100E00461521C59
:10233000082AE5D305600A88FF2A1CD944680022D0
:1023400002F108060EFA06F50E882E40AE420ED1B6
:1023500096000CFA06F7BC4303FA06F7CE783C4326
:10236000282E00D14561CE78482E00D10561521C3F
:10237000082AE5D34460F0BDF0B5144C002801DA1A
:10238000E36900E06368450D2E0185B2C0F3015793
:10239000B540C0F30342032F05D0C6020AD5032679
:1023A0009640B34307E023F07062636823F07063E4
:1023B000636002E0AB4343F0706201B12A4300283E
:1023C00001DAE261F0BD6260F0BD00000000014092
:1023D0000246002092680A4200D001207047416105
:1023E0007047016170470AB10161704741617047F0
:1023F00030B40C4601461546500700D0012000EBD2
:10240000D5006843C2B208784B78812809D3402BA5
:1024100007D3FF2B05D0FF2803D07F2B0CD2403BE6
:102420000BE00023184603E05B1C04F8010BDBB251
:102430009342F9D330BC7047413B8138D9B2C0B226
:10244000C0EB401303EB801001EB400050430A49FE
:102450000C2D0AD0102D0BD0182DEBD1D1F819105E
:102460000144204630BC05F0E7B8D1F80910F7E781
:10247000D1F81110F4E7000080F80020FEE772B6F2
:10248000704762B6704700007CB5054600211E48C3
:1024900000910191008902041C4802600D224260F3
:1024A0004022C0E902211101016103F04DFA184CEC
:1024B000606B0190014601E0616B019111F0450FE5
:1024C000FAD0012003F010FA20B1012003F0C8F97E
:1024D00001207CBD042003F007FA20B1042003F0A2
:1024E000BFF903207CBD20690D2801D010207CBDE0
:1024F00040F2FF5003F0B4F960690090C0F343204C
:10250000287000207CBD000044000020B80200209C
:102510000080014008B50121442002F0AFFF1C20DB
:10252000ADF8000048208DF8030069460648FFF723
:10253000D5FE0120ADF8000028208DF80300694683
:102540000248FFF7CBFE08BD00180140000801401B
:102550002DE9F0412E4C2F4F2F4D012608B126704A
:1025600001E02078A0B110212846FFF731FFB0B17B
:1025700008212846FFF72CFF88B104212846FFF7E1
:1025800027FF60B101213846FFF722FF012806D05E
:1025900010212846FFF71CFF012824D035E00A202F
:1025A00005F098FB0020207010212846FFF710FF4F
:1025B00080B108212846FFF70BFF70B1042128469F
:1025C000FFF706FF58B101213846FFF701FF012848
:1025D00007D01AE00120BDE8F0810220FBE70320CC
:1025E000F9E70420F7E708212846FFF7F1FE012864
:1025F0000BD104212846FFF7EBFE012805D101216C
:102600003846FFF7E5FE00B926700020E3E700003A
:102610003C000020000801400018014070B5094945
:102620000646002408884D8821464543204602F08E
:10263000D1F802F0B9F9044801E00680641CAC420C
:10264000FBD370BD8C0200200008006C2DE9F04F18
:102650002B4B2C27194698712B2589884FF4305A1B
:102660004FF4285B4FF4487441F6631E2A264FF05E
:10267000F00845F210594FF4A07C4FF4F072C8B145
:10268000A3F800C0A3F80280494533D1A3F808A0FD
:10269000A3F80AB0280298811C805A80A1F5A640B0
:1026A000103802D11A80A3F802C0BDE8F04F002014
:1026B00001F0EEBFA3F80080A3F802C0494507D19E
:1026C000A3F808A0A3F80AB04FF42C50988104E0B6
:1026D00071451F8104D15D819E811A805C8001E07B
:1026E0005E819D81A1F5A6401038DED1A3F800C01F
:1026F0005A80DAE71F815E8171459D81CCD0CDE79C
:102700008C0200202DE9F047DFF89C9092464A4663
:10271000B9F80460DFF894C093890C0A050A52895D
:10272000A6F5A0480CF10207B8F5A2680CD0A6F5F2
:10273000C858B8F1630816D0ACF800203D80C0B28C
:102740003880ACF8003024E0ACF800203D80521C0A
:10275000ACF80020C0B23880ACF800303C805B1C84
:10276000ACF8003016E099F8066026B9B9F80050C8
:10277000281A401E80B2ACF80020020A3A80C5B286
:102780003D803A80C0B23880ACF800303C80C8B29E
:1027900038803C80C8B23880B9F80800ACF8000036
:1027A000A7F800A0BDE8F0878C020020FE07006CAF
:1027B0002DE9F0438146A2EB0900401C1F460C4660
:1027C00085B2DFF83080079E0FE02146484602F0D0
:1027D00001F802F0E9F80020414602E00E80401CBA
:1027E00080B2A842FAD3641CA4B2BC42EDD9BDE8C1
:1027F000F08300000008006C2DE9F04F01219FB02C
:10280000080202F023FE01214FF4B47002F036FEFC
:102810000120ADF83C0010208DF83F0003248DF816
:102820003E400FA9FE48FFF759FD4CF23370ADF85A
:102830003C0018258DF83F508DF83E400FA9F9480F
:10284000FFF74CFD4FF68070ADF83C008DF83F501F
:102850008DF83E400FA9F448FFF740FD41F201001A
:10286000ADF83C008DF83F508DF83E400FA9EF4881
:10287000FFF734FD0120179000200F21CDE918014A
:102880001A901B901C901D901090CDE9110414908B
:1028900015900621CDE9001016901021CDE9020116
:1028A000139004900902CDE9080106900590079065
:1028B0008900CDE90A010C9017A80D9010A80E9080
:1028C0006846FFF70BFC01210620FFF7F7FB3220DB
:1028D00005F000FAD64CD320208001F0B1FED54D92
:1028E000A88001F0ADFE2946888001F0A9FE4FF6D0
:1028F000FF78294608EA0020888001F0A1FE2946D9
:1029000049F2413A898847F289760843294645F2D7
:102910001039888045F2105741F6631B504574D03A
:102920000420208001F08CFEA88001F089FEA880A0
:1029300001F086FE08EA00204146A88001F080FEF2
:10294000AA881043A0F50542A880523A59D0B04257
:102950005BD0D420208001F073FEA88001F070FECF
:10296000A88001F06DFE01EA00208846A88001F0F1
:1029700067FEA9880843A880484546D055214FF4F2
:10298000704002F01BF8AA214FF2010002F016F885
:1029900052214FF2020002F011F808214FF2030019
:1029A00002F00CF801214FF2040002F007F84FF496
:1029B0004540208001F044FE08EA0020A8804CF247
:1029C00001504146208001F03BFEAA881043A880B8
:1029D000B0F5004F7ED0B84217D0A120208001F082
:1029E0002FFEA88001F02CFE01EA0020A88001F053
:1029F00027FEA9880843A0F5AE41A880613902D01E
:102A000003E0AE8001E0A5F804B0A9888AA0FDF734
:102A10005DFCA888864DAD1C50457DD1CF2020801F
:102A200000202880C120288030202880ED202080B0
:102A3000642028800320288012202880812028807C
:102A4000E820208085202880102028807A20288077
:102A5000CB202080392028802C202880002028802E
:102A60003420288002202880F72020802020288001
:102A7000EA202080002028802880C02020801B2081
:102A80002880C120208001202880C520208030207F
:102A900028802880C7202080B720288036202080EA
:102AA000482028803A20208055202880B12020808E
:102AB000002028801A202880B62020800A20288024
:102AC000A2202880F220208000202880262020803C
:102AD000012000E055E02880E02020800F202880A1
:102AE0002A20288028202880082028800E2028805E
:102AF0000820288054202880A9202880432028806E
:102B00000A2028800F202880002028802880288004
:102B10002880E120208000E035E00020288015207A
:102B20002880172028800720288011202880062050
:102B300028802B202880562028803C2028800520B3
:102B40002880102028800F2028803F20288028807F
:102B50000F2028802B202080002028802880012022
:102B600028803F2028802A2020800020288028805C
:102B70002880EF20288011202080782005F0AAF8F6
:102B8000A0E0AF8041E7B0427ED1112020807820C4
:102B900005F0A0F836202080002028803A202080F0
:102BA00005202880B22020800C202880288000204A
:102BB0002880332028802880B72020803520288056
:102BC000BB20208032202880C02020800C2028803C
:102BD000C220208001202880C3202080102028804F
:102BE000C420208020202880C62020800F2028801C
:102BF000D0202080A4202880A1202880E0202080D0
:102C0000D0202880002028800220288007202880CB
:102C10000A2028802820288032202880442013E0A1
:102C2000000C014000140140001801400020014048
:102C3000FE07006C8C020020204C43442049443A9B
:102C400025780D0A000000002880422028800620F8
:102C500028800E2028801220288014202880172009
:102C60002880E1202080D020288000202880022099
:102C70002880072028800A202880282028803120CA
:102C800028805420288000E01FE0472028800E2064
:102C900028801C202880172028801B2028801E20A8
:102CA00028802A2020800020288028802880EF206B
:102CB00028802B2020800020288028800120288048
:102CC0003F202880292001F02DBC48457ED1ED20F1
:102CD000208001202880FE202880EE202080DE2019
:102CE000288021202880F120208001202880DF20DA
:102CF000208010202880C42020808F202880C6209B
:102D0000208000202880E220288028802880BF2082
:102D10002080AA202880B02020800D20288000203C
:102D200028800D2028800020288011202880002065
:102D30002880192028800020288021202880002039
:102D400028802D202880002028803D2028800020F9
:102D500028805D202880002028805D202880002099
:102D60002880B120208080202880002028808B208F
:102D70002880002028809620288000202880B220EB
:102D800020800020288028800220288000202880A1
:102D90000320288000202880B32020800020288065
:102DA00028802880288028802880288028802880E3
:102DB00028802880288028802880288028802880D3
:102DC0002880288028802880288000E0FEE3288052
:102DD0002880B42020808B20288000202880962006
:102DE000288000202880A120288000202880B5206D
:102DF00020800220288000202880032028800020B6
:102E000028800420288000202880B62020800020F0
:102E100028802880B72020800020288028803F201C
:102E20002880002028805E202880002028806420C0
:102E30002880002028808C20288000202880AC203A
:102E4000288000202880DC20288000202880702016
:102E50002880002028809020288000202880EB20D7
:102E6000288000202880DC20288000202880B820AE
:102E700020800020288028802880288028802880A2
:102E800028802880BA2020802420288000202880C4
:102E900028802880C12020802020288000202880B1
:102EA0005420288000202880FF20288000202880AF
:102EB000C22020800A20288000202880042028802A
:102EC00000202880C32020803C20288000202880EB
:102ED0003A2028800020288039202880002028805F
:102EE00037202880002028803C202880002028804F
:102EF000362028800020288032202880002028804A
:102F00002F202880002028802C2028800020288046
:102F10002920288000202880262028800020288042
:102F20002420288000202880242028800020288039
:102F300023202880002028803C2028800020288012
:102F400036202880002028803220288000202880F9
:102F50002F202880002028802C20288000202880F6
:102F600029202880002028802620288000202880F2
:102F700024202880002028802420288000202880E9
:102F80002320288000202880C420208062202880E0
:102F90000020288005202880002028808420288088
:102FA00000202880F02028800020288018202880F9
:102FB00000202880A4202880002028801820288035
:102FC0000020288050202880002028800C20288085
:102FD0000020288017202880002028809520288025
:102FE00000202880F320288000202880E6202880E8
:102FF00000202880C52020803220288000202880C2
:1030000044202880002028806520288000202880F7
:103010007620288000202880882028800020288092
:10302000C62020802020288000202880172028808B
:10303000002028800120288000202880C7202080B0
:1030400000202880288028802880C8202080002018
:103050002880288028802880C9202080002028807F
:103060002880288028802880288028802880288020
:103070002880288028802880288028802880E020B8
:10308000208016202880002028801C2028800020F6
:1030900028802120288000202880362028800020B9
:1030A0002880462028800020288052202880002068
:1030B000288064202880002028807A202880002012
:1030C00028808B20288000202880992028800020BC
:1030D0002880A820288000202880B920288000206F
:1030E0002880C420288000202880CA202880002032
:1030F0002880D220288000202880D9202880002005
:103100002880E020288000202880F32028800020CC
:103110002880E120208016202880002028801C2084
:103120002880002028802220288000202880362027
:1031300028800020288045202880002028805220D8
:1031400028800020288064202880002028807A2081
:103150002880002028808B2028800020288099202B
:10316000288000202880A820288000202880B920DE
:10317000288000202880C420288000202880CA20A1
:10318000288000202880D220288000202880D82075
:10319000288000202880E020288000202880F3203C
:1031A000288000202880E220208005202880002020
:1031B00028800B202880002028801B2028800020C9
:1031C0002880342028800020288044202880002067
:1031D00028804F202880002028806120288000201F
:1031E00028807920288000202880882028800020BE
:1031F00028809720288000202880A6202880002072
:103200002880B720288000202880C2202880002025
:103210002880C720288000202880D12028800020F6
:103220002880D620288000202880DD2028800020CB
:103230002880F320288000202880E320208005209B
:103240002880002028800A202880002028801C2038
:1032500028800020288033202880002028804420D7
:10326000288000202880502028800020288062208C
:10327000288000202880782028800020288088202E
:103280002880002028809720288000202880A620E1
:10329000288000202880B720288000202880C22095
:1032A000288000202880C720288000202880D12066
:1032B000288000202880D520288000202880DD203C
:1032C000288000202880F320288000202880E42007
:1032D00020800120288000202880012028800020D4
:1032E000288002202880002028802A202880002092
:1032F00028803C202880002028804B202880002027
:1033000028805D20288000202880742028800020CC
:103310002880842028800020288093202880002076
:103320002880A220288000202880B3202880002028
:103330002880BE20288000202880C42028800020EB
:103340002880CD20288000202880D32028800020BD
:103350002880DD20288000202880F320288000207D
:103360002880E52020800020288028802880288050
:103370000220288000202880292028800020288002
:103380003C202880002028804B2028800020288096
:103390005D2028800020288074202880002028803C
:1033A00084202880002028809320288000202880E6
:1033B000A220288000202880B32028800020288098
:1033C000BE20288000202880C4202880002028805B
:1033D000CD20288000202880D3202880002028802D
:1033E000DC20288000202880F320288000202880EE
:1033F000E62020801120288000202880342028808A
:1034000000202880562028800020288076202880D0
:1034100000202880772028800020288066202880AF
:10342000002028808820288000202880992028805B
:1034300000202880BB202880002028809920288018
:1034400000202880662028800020288055202880A1
:1034500000202880552028800020288045202880B2
:1034600000202880432028800020288044202880B5
:1034700000202880E720208032202880002028801B
:103480005520288000202880762028800020288051
:10349000662028800020288067202880002028803F
:1034A000672028800020288087202880002028800E
:1034B0009920288000202880BB2028800020288098
:1034C00099202880002028807720288000202880CC
:1034D0004420288000202880562028800020288032
:1034E0002320288000202880332028800020288066
:1034F0004520288000202880E82020800020288087
:10350000288099202880002028808720288000207B
:10351000288088202880002028807720288000208C
:10352000288066202880002028808820288000208D
:103530002880AA20288000202880BB202880002006
:10354000288099202880002028806620288000205C
:1035500028805520288000202880552028800020A1
:1035600028804420288000202880442028800020B3
:1035700028805520288000202880E9202080AA204B
:10358000288000202880288028802080AA20288069
:10359000CF20208000202880288028802880288034
:1035A00028802880288028802880288028802880DB
:1035B0002880288028802880F020208000202880F3
:1035C0005020288000202880288000E02BE02880E0
:1035D000F320208000202880F920208006202880E9
:1035E0001020288029202880002028803A20208050
:1035F0005520288011202080642004F06BFB2920B6
:103600002080352020800020288051202080FF202D
:103610002880532020802C20288055202080822044
:1036200028802C20FEE3B8427ED14FF4704955210A
:10363000484601F0C3F94FF20103AA21184601F0F0
:10364000BDF94FF202055221284601F0B7F96E1C70
:103650000821304601F0B2F9AF1C0121384601F0D3
:10366000ADF90D214FF4304001F0A8F90D214BF2D6
:10367000010001F0A3F90D214BF2020001F09EF9C7
:103680004FF4364A3421504601F098F934214BF278
:10369000016001F093F934214BF2026001F08EF9E0
:1036A0004FF4314B0D21584601F088F90D214BF2B2
:1036B000011001F083F90D214BF2021001F07EF9A7
:1036C00034214FF4374001F079F934214BF2017085
:1036D00001F074F934214BF2027001F06FF900210E
:1036E0004FF4324001F06AF900214BF2012001F061
:1036F00065F900214BF2022001F060F924214FF41A
:10370000384001F05BF924214BF6010001F056F935
:1037100024214BF6020001F051F901214FF43F4002
:1037200001F04CF90F2100E0FEE34FF4334001F0CB
:1037300045F90F214BF2013001F040F90F214BF216
:10374000023001F03BF934214FF4394001F036F9F1
:1037500034214BF6011001F031F934214BF60210FF
:1037600001F02CF908214FF4354001F027F9082128
:103770004BF2015001F022F908214BF2025001F006
:103780001DF903214FF4424001F018F924214FF4B0
:103790003A4001F013F924214BF6012001F00EF913
:1037A00024214BF6022001F009F900214FF43C409E
:1037B00001F004F978214BF6014001F0FFF80021F7
:1037C0004BF6024001F0FAF800214FF43D4001F0C1
:1037D000F5F878214BF6015001F0F0F800214BF696
:1037E000025001F0EBF800214FF43E4001F0E6F802
:1037F00064214BF6016001F0E1F800214FF45140E3
:1038000001F0DCF833214DF2011001F0D7F800216E
:103810004DF2021001F0D2F834214DF2031001F004
:10382000CDF800214DF2041001F0C8F83A214DF214
:10383000051001F0C3F800214DF2061001F0BEF8AA
:103840004A214DF2071001F0B9F800214DF208109D
:1038500001F0B4F85C214DF2091001F0AFF800213D
:103860004DF20A1001F0AAF881214DF20B1001F07F
:10387000A5F800214DF20C1001F0A0F8A6214DF2A0
:103880000D1001F09BF800214DF20E1001F096F89A
:10389000E5214DF20F1001F091F801214DF21010C9
:1038A00001F08CF813214DF2111001F087F801217D
:1038B0004DF2121001F082F854214DF2131001F074
:1038C0007DF801214DF2141001F078F882214DF2BB
:1038D000151001F073F801214DF2161001F06EF889
:1038E000CA214DF2171001F069F802214DF21810AB
:1038F00001F064F800214DF2191001F05FF8022187
:103900004DF21A1001F05AF801214DF21B1001F08E
:1039100055F802214DF21C1001F050F834214DF2FF
:103920001D1001F04BF802214DF21E1001F046F877
:1039300067214DF21F1001F041F802214DF22010D5
:1039400001F03CF884214DF2211001F037F80221FA
:103950004DF2221001F032F8A4214DF2231001F0B3
:103960002DF802214DF2241001F028F8B7214DF274
:10397000251001F023F802214DF2261001F01EF867
:10398000CF214DF2271001F019F802214DF2281035
:1039900001F014F8DE214DF2291001F00FF8022198
:1039A0004DF22A1001F00AF8F2214DF22B1001F02D
:1039B00005F802214DF22C1001F000F8FE214DF225
:1039C0002D1000F0FBFF03214DF22E1000F0F6FF4A
:1039D00010214DF22F1000F0F1FF03214DF23010B5
:1039E00000F0ECFF33214DF2311000F0E7FF03212E
:1039F0004DF2321000F0E2FF6D214DF2331000F075
:103A0000DDFF00214FF4524000F0D8FF33214DF28A
:103A1000012000F0D3FF00214DF2022000F0CEFF84
:103A200034214DF2032000F0C9FF00214DF20420A3
:103A300000F0C4FF3A214DF2052000F0BFFF002145
:103A40004DF2062000F0BAFF4A214DF2072000F0A7
:103A5000B5FF00214DF2082000F0B0FF5C214DF2CF
:103A6000092000F0ABFF00214DF20A2000F0A6FF74
:103A700081214DF20B2000F0A1FF00214DF20C201E
:103A800000F09CFFA6214DF20D2000F097FF0021D1
:103A90004DF20E2000F092FFE5214DF20F2000F0D4
:103AA0008DFF01214DF2102000F088FF13214DF20F
:103AB000112000F083FF01214DF2122000F07EFF63
:103AC00054214DF2132000F079FF01214DF2142012
:103AD00000F074FF82214DF2152000F06FFF0121EC
:103AE0004DF2162000F06AFFCA214DF2172000F0B7
:103AF00065FF02214DF2182000F060FF00214DF219
:103B0000192000F05BFF02214DF21A2000F056FF51
:103B100001214DF21B2000F051FF02214DF21C202B
:103B200000F04CFF34214DF21D2000F047FF022130
:103B30004DF21E2000F042FF67214DF21F2000F0E1
:103B40003DFF02214DF2202000F038FF84214DF28C
:103B5000212000F033FF02214DF2222000F02EFF41
:103B6000A4214DF2232000F029FF02214DF2242050
:103B700000F024FFB7214DF2252000F01FFF0221A5
:103B80004DF2262000F01AFFCF214DF2272000F041
:103B900015FF02214DF2282000F010FFDE214DF22A
:103BA000292000F00BFF02214DF22A2000F006FF31
:103BB000F2214DF22B2000F001FF02214DF22C20CA
:103BC00000F0FCFEFE214DF22D2000F0F7FE032157
:103BD0004DF22E2000F0F2FE10214DF22F2000F0C9
:103BE000EDFE03214DF2302000F0E8FE33214DF2CE
:103BF000312000F0E3FE03214DF2322000F0DEFE22
:103C00006D214DF2332000F0D9FE00214FF45340D6
:103C100000F0D4FE33214DF2013000F0CFFE002140
:103C20004DF2023000F0CAFE34214DF2033000F0B4
:103C3000C5FE00214DF2043000F0C0FE3A214DF2E5
:103C4000053000F0BBFE00214DF2063000F0B6FE5C
:103C50004A214DF2073000F0B1FE00214DF208304C
:103C600000F0ACFE5C214DF2093000F0A7FE00210F
:103C70004DF20A3000F0A2FE81214DF20B3000F02F
:103C80009DFE00214DF20C3000F098FEA6214DF271
:103C90000D3000F093FE00214DF20E3000F08EFE4C
:103CA000E5214DF20F3000F089FE01214DF2103078
:103CB00000F084FE13214DF2113000F07FFE01214F
:103CC0004DF2123000F07AFE54214DF2133000F024
:103CD00075FE01214DF2143000F070FE82214DF28C
:103CE000153000F06BFE01214DF2163000F066FE3B
:103CF000CA214DF2173000F061FE02214DF218305A
:103D000000F05CFE00214DF2193000F057FE022158
:103D10004DF21A3000F052FE01214DF21B3000F03E
:103D20004DFE02214DF21C3000F048FE34214DF2D0
:103D30001D3000F043FE02214DF21E3000F03EFE29
:103D400067214DF21F3000F039FE02214DF2203084
:103D500000F034FE84214DF2213000F02FFE0221CC
:103D60004DF2223000F02AFEA4214DF2233000F063
:103D700025FE02214DF2243000F020FEB7214DF245
:103D8000253000F01BFE02214DF2263000F016FE19
:103D9000CF214DF2273000F011FE02214DF22830E4
:103DA00000F00CFEDE214DF2293000F007FE02216A
:103DB0004DF22A3000F002FEF2214DF22B3000F0DD
:103DC000FDFD02214DF22C3000F0F8FDFE214DF2F8
:103DD0002D3000F0F3FD03214DF22E3000F0EEFD0A
:103DE00010214DF22F3000F0E9FD03214DF230306B
:103DF00000F0E4FD33214DF2313000F0DFFD03210E
:103E00004DF2323000F0DAFD6D214DF2333000F02A
:103E1000D5FD00214FF4544000F0D0FD33214DF288
:103E2000014000E07EE300F0C9FD00214DF20240B8
:103E300000F0C4FD34214DF2034000F0BFFD00212D
:103E40004DF2044000F0BAFD3A214DF2054000F079
:103E5000B5FD00214DF2064000F0B0FD4A214DF2C3
:103E6000074000F0ABFD00214DF2084000F0A6FD38
:103E70005C214DF2094000F0A1FD00214DF20A4005
:103E800000F09CFD81214DF20B4000F097FD0021D8
:103E90004DF20C4000F092FDA6214DF20D4000F0D5
:103EA0008DFD00214DF20E4000F088FDE5214DF220
:103EB0000F4000F083FD01214DF2104000F07EFD27
:103EC00013214DF2114000F079FD01214DF2124015
:103ED00000F074FD54214DF2134000F06FFD0121FC
:103EE0004DF2144000F06AFD82214DF2154000F0C1
:103EF00065FD01214DF2164000F060FDCA214DF232
:103F0000174000F05BFD02214DF2184000F056FD15
:103F100000214DF2194000F051FD02214DF21A40EE
:103F200000F04CFD012100E0FEE24DF21B4000F0EC
:103F300045FD02214DF21C4000F040FD34214DF2C0
:103F40001D4000F03BFD02214DF21E4000F036FD09
:103F500067214DF21F4000F031FD02214DF220405B
:103F600000F02CFD84214DF2214000F027FD0221BC
:103F70004DF2224000F022FDA4214DF2234000F03A
:103F80001DFD02214DF2244000F018FDB7214DF235
:103F9000254000F013FD02214DF2264000F00EFDF9
:103FA000CF214DF2274000F009FD02214DF22840BB
:103FB00000F004FDDE214DF2294000F0FFFC02215B
:103FC0004DF22A4000F0FAFCF2214DF22B4000F0B5
:103FD000F5FC02214DF22C4000F0F0FCFE214DF2E8
:103FE0002D4000F0EBFC03214DF22E4000F0E6FCEA
:103FF00010214DF22F4000F0E1FC03214DF2304042
:1040000000F0DCFC33214DF2314000F0D7FC0321FD
:104010004DF2324000F0D2FC6D214DF2334000F001
:10402000CDFC00214FF4554000F0C8FC33214DF287
:10403000015000F0C3FC00214DF2025000F0BEFC24
:1040400034214DF2035000F0B9FC00214DF2045030
:1040500000F0B4FC3A214DF2055000F0AFFC002115
:104060004DF2065000F0AAFC4A214DF2075000F034
:10407000A5FC00214DF2085000F0A0FC5C214DF29F
:10408000095000F09BFC00214DF20A5000F096FC14
:1040900081214DF20B5000F091FC00214DF20C50AB
:1040A00000F08CFCA6214DF20D5000F087FC0021A1
:1040B0004DF20E5000F082FCE5214DF20F5000F061
:1040C0007DFC01214DF2105000F078FC13214DF2DF
:1040D000115000F073FC01214DF2125000F06EFC03
:1040E00054214DF2135000F069FC01214DF214509F
:1040F00000F064FC82214DF2155000F05FFC0121BC
:104100004DF2165000F05AFCCA214DF2175000F043
:1041100055FC02214DF2185000F050FC00214DF2E8
:10412000195000F04BFC02214DF21A5000F046FCF1
:1041300001214DF21B5000F041FC02214DF21C50B8
:1041400000F03CFC34214DF21D5000F037FC022100
:104150004DF21E5000F032FC67214DF21F5000F06E
:104160002DFC02214DF2205000F028FC84214DF25C
:10417000215000F023FC02214DF2225000F01EFCE1
:10418000A4214DF2235000F019FC02214DF22450DD
:1041900000F014FCB7214DF2255000F00FFC022175
:1041A0004DF2265000F00AFCCF214DF2275000F0CE
:1041B00005FC02214DF2285000F000FCDE214DF2FA
:1041C000295000F0FBFB02214DF22A5000F0F6FBD3
:1041D000F2214DF22B5000F0F1FB02214DF22C5058
:1041E00000F0ECFBFE214DF22D5000F0E7FB032127
:1041F0004DF22E5000F0E2FB10214DF22F5000F056
:10420000DDFB03214DF2305000F0D8FB33214DF29D
:10421000315000F0D3FB03214DF2325000F0CEFBC1
:104220006D214DF2335000F0C9FB00214FF4564090
:1042300000F0C4FB33214DF2016000F0BFFB002110
:104240004DF2026000F0BAFB34214DF2036000F041
:10425000B5FB00214DF2046000F0B0FB3A214DF2B5
:10426000056000F0ABFB00214DF2066000F0A6FBFC
:104270004A214DF2076000F0A1FB00214DF20860D9
:1042800000F09CFB5C214DF2096000F097FB0021DF
:104290004DF20A6000F092FB81214DF20B6000F0BC
:1042A0008DFB00214DF20C6000F088FBA6214DF241
:1042B0000D6000F083FB00214DF20E6000F07EFBEC
:1042C000E5214DF20F6000F079FB01214DF2106005
:1042D00000F074FB13214DF2116000F06FFB01211F
:1042E0004DF2126000F06AFB54214DF2136000F0B1
:1042F00065FB01214DF2146000F060FB82214DF25C
:10430000156000F05BFB01214DF2166000F056FBDA
:10431000CA214DF2176000F051FB02214DF21860E6
:1043200000F04CFB00214DF2196000F047FB022128
:104330004DF21A6000F042FB01214DF21B6000F0CB
:104340003DFB02214DF21C6000F038FB34214DF2A0
:104350001D6000F033FB02214DF21E6000F02EFBC9
:1043600067214DF21F6000F029FB02214DF2206011
:1043700000F024FB84214DF2216000F01FFB02219C
:104380004DF2226000F01AFBA4214DF2236000F0F0
:1043900015FB02214DF2246000F010FBB7214DF215
:1043A000256000F00BFB02214DF2266000F006FBB9
:1043B000CF214DF2276000F001FB02214DF2286071
:1043C00000F0FCFADE214DF2296000F0F7FA02213C
:1043D0004DF22A6000F0F2FAF2214DF22B6000F06B
:1043E000EDFA02214DF22C6000F0E8FAFE214DF2C8
:1043F0002D6000F0E3FA03214DF22E6000F0DEFAAA
:1044000010214DF22F6000F0D9FA03214DF23060F7
:1044100000F0D4FA33214DF2316000F0CFFA0321DD
:104420004DF2326000F0CAFA6D214DF2336000F0B7
:10443000C5FA5521484600F0C1FAAA21184600F0F5
:10444000BDFA5221284600F0B9FA0821304600F0A2
:10445000B5FA0021384600F0B1FACC21584600F0F8
:10446000ADFA00214BF2011000F0A8FA05215046E8
:1044700000F0A4FA70214FF4374000F09FFA702149
:104480004BF2017000F09AFA01214FF4384000F02D
:1044900095FA03214BF6010000F090FA03214BF648
:1044A000020000F08BFA03214BF6030000F086FABD
:1044B00002214FF43C4000F081FA00214BF601400C
:1044C00000F07CFA00214BF6024000F077FAD02190
:1044D0004FF4494000F072FA02214CF6011000F04E
:1044E0006DFA50214CF6021000F068FA50214CF69B
:1044F000031000F063FA50214CF6041000F05EFA4D
:1045000000214FF4545000F059FA55214FF46850EF
:1045100000F054FA4FF488502080782003F0F4FB28
:104520004FF4245020807BE0584579D1E220208050
:104530001D2028800220288004202880642003F089
:10454000E3FBE0202080012028800A2003F0C2FB4A
:10455000E0202080032028800C2003F0BBFB0120FA
:1045600020800A2003F0B6FBE62020802F20288040
:10457000FF2028802880B020208020202880002054
:1045800028800320288040F21F30288001202880C6
:1045900040F2DF10288000202880B42020800420F2
:1045A000288040F21F402880002028802E2028806C
:1045B00000202880288028802880B62020800220A3
:1045C00028804FF40370288000202880172028803E
:1045D00015202880002028802880F02020800320BB
:1045E000288029202080D020208000202880BE2004
:1045F000208005202880FE2028800120288000209F
:10460000288028802880B82020800320288001204E
:104610002880BA20208001202880642000F01AF829
:104620000020FEF713F805490120C1F8800140463B
:10463000FDF7F4FF1FB0BDE8F08F000000802142BD
:10464000034808B50088ADF80000BDF8000008BDBB
:104650000008006C0C4A10B5BE211180941C052185
:10466000218006F08FFC4FF06632084B06F09EFC6E
:1046700006F044FC208001202080FF2020800020C4
:104680002080208010BD0000FE07006C666604409C
:1046900070B54E4D00232946AA79898841F66314E6
:1046A000012A01D01AB11BE0A14202D118E0A142B7
:1046B00016D1082814D2DFE800F00406080A0C0E10
:1046C000101206200CE007200AE0042008E0052074
:1046D00006E0012004E0002002E0032000E00220C8
:1046E000082812D2DFE800F0110406080A0C0E10A8
:1046F00080230AE0402308E0C02306E0202304E0F2
:10470000602302E0A02300E0E02345F21056B1420E
:1047100002D14FF4585000E03620A1F51342413A3F
:1047200003D0A1F5EE42893A01D143F008031946BE
:1047300000F044F9AA88A2420AD09806288869881D
:1047400002D5884202D303E0884201D929806880DB
:104750001F48811CB2426A89028021D100230B804C
:10476000531C038000230B80931C03802B885B1E4B
:104770001C0A0C80D21C0280DAB20A80AA8902804C
:1047800000230B80531C038000230B80931C0380A9
:104790006B885B1E1C0A0C80D21C0280D8B212E00F
:1047A00000220A800A802A88521E130A0B80D2B285
:1047B0000A80AA8902800020088008806888401E3C
:1047C000020A0A80C0B2088070BD00008C0200207E
:1047D000FE07006C2DE9F043DFF8A490294F4A460C
:1047E000B9F804C09389050A0C0ABE1C5289ACF5BD
:1047F000C858B8F163080ED0ACF5A048B8F5A26867
:104800003A80358033D0C0B230803B803480C8B22B
:104810003080BDE8F083DFF868C099F80680BCF806
:1048200000C0B8F1000F16D03A803580C0B2308099
:10483000ACF1010C4FEA1C2030800CF0FF003080FE
:104840003B803480C8B23080B9F80200401E010AB3
:104850003180C0B2DCE7ACEB0000401E80B23A8091
:10486000002232803280020A3280C0B2E7E7521C56
:104870003A80C0B230803B8034805B1C3B80C6E70E
:104880008C020020FE07006C2DE9F84F82461F467F
:104890000C468B46580700D0012000EBD700790862
:1048A0004843203AC0B202F0FF090026009041E0E0
:1048B0000C2F10D0102F12D0182F3ED1204909EB09
:1048C000C90001EB80004FF00008855D28060AD57D
:1048D0001C4802880BE009EB49001B49F1E71B4922
:1048E00001EB0910EFE70A9828B9164842882146DB
:1048F0005046FDF707FF6806050E1548641CA4B274
:104900004088A04219D9A4EB0B00B84209D10AF1A2
:1049100001001FFA80FA0E485C46018851450CD907
:1049200006E008F1010000F0FF08B8F1080FCDD350
:10493000761CF6B200988642BAD3BDE8F88F000024
:1049400014C300083E000020B0B8000824BD0008D1
:104950008C0200202DE9F84F044600F0FF081019E2
:104960000D46DDE90A761FFA80FA58191FFA80F918
:104970004FF0000B11E0544502D3E819444685B2CC
:104980004D450FD23B4629462046CDF800B0FFF7F3
:104990007BFF04EB570084B2761C3278A2F1200032
:1049A0005E28E8D9BDE8F88F0248034900890880ED
:1049B000704700008C020020FE07006C024A108045
:1049C000901C018070470000FE07006C38B5012183
:1049D000482000F053FD2024ADF8004010208DF851
:1049E000030003200B4D8DF8020069462846FDF7B1
:1049F00075FC20212846FDF7F4FCADF80040064C7C
:104A000069462046FDF76AFC20212046FDF7E9FCB7
:104A100038BD0000000C01400018014030B50446CC
:104A20008BB00121022000F011FD0E4D2846FDF74C
:104A3000D9F80D484021CDE9004000200290CDE991
:104A400003018900CDE905018900CDE9071088003F
:104A5000099080000A9069462846FDF735F90BB0A9
:104A600030BD0000580402400008006CFEE77047AB
:104A700030B50F23C27801780125F2B1144A1268CB
:104A800001F1E02102F4E062C2F5E062120AC2F133
:104A90000404D3404278A24084781C40144322018D
:104AA00081F80024007800F01F018D40400980004B
:104AB00000F1E020C0F8005130BD01F01F0085403A
:104AC0004809800000F1E020C0F8805130BD0000AE
:104AD0000CED00E0024908430249086070470000FD
:104AE0000000FA050CED00E070B500250021284615
:104AF00000F0E6F80024002000F04CF9641CE4B259
:104B0000802CF8D36D1CEDB2082DEFD370BD0000E2
:104B100038B50121082000F0B1FC14208DF8030005
:104B200003208DF8020040200C4CADF800006946CF
:104B30002046FDF7D3FB8021ADF8001069462046E2
:104B4000FDF7CCFB012240212046FDF74CFC012261
:104B500080212046FDF747FC38BD0000000C0140D5
:104B60002DE9F0410024124D0646802727FA04F271
:104B7000324080212846FDF736FC0122402128469C
:104B8000FDF731FC002240212846FDF72CFC641C77
:104B9000E4B2082CEAD3012240212846FDF723FC89
:104BA0002846BDE8F04100224021FDF71CBC000072
:104BB000000C014010B50B4C012280212046FDF76E
:104BC00012FC012240212046FDF70DFC002280212D
:104BD0002046FDF708FC20460022BDE81040402199
:104BE000FDF701BC000C014010B5094C00228021EA
:104BF0002046FDF7F8FB012240212046FDF7F3FB9C
:104C000020460122BDE810408021FDF7ECBB0000EA
:104C1000000C014010B500214FF47A720020401CB6
:104C20009042FCD3491C9142F8D3FFF771FFAE20AC
:104C300000F09FF8D52000F09CF8802000F099F853
:104C4000A82000F096F83F2000F093F8D32000F061
:104C500090F8002000F08DF8402000F08AF8A120A4
:104C600000F087F8C82000F084F8DA2000F081F81E
:104C7000122000F07EF8812000F07BF8CF2000F0B9
:104C800078F8D92000F075F8F12000F072F8DB20F8
:104C900000F06FF8302000F06CF8A42000F069F804
:104CA000A62000F066F88D2000F063F8142000F0D4
:104CB00060F8AF2000F05DF8BDE81040FFF714BFCA
:104CC00010B50C4640F0B00000F053F8102040EA58
:104CD000141000F04EF804F00F00BDE8104000F092
:104CE00048B800002DE9F0410746CE004000083EDC
:104CF000801E15464FF0FF38F1B2C0B2FFF7E0FF5B
:104D00001148002400EB05152819A0F5805090F8F3
:104D1000000E00F03FF8641CE4B2082CF4D308EB5A
:104D20004700F1B2C0B2FFF7CBFF00242819A0F56D
:104D3000805090F8080E00F02DF8641CE4B2082CA6
:104D4000F4D3BDE8F081000036D200082DE9F0412F
:104D500015460E460746002406E03019C1B2384613
:104D6000FFF7C0FF641CE4B22A5D002AF5D1BDE85C
:104D7000F08110B50446FFF71DFF7820FFF7F0FE25
:104D80000020FFF7EDFE2046FFF7EAFEBDE81040E9
:104D9000FFF72ABF10B50446FFF70CFF7820FFF796
:104DA000DFFE4020FFF7DCFE2046FFF7D9FEBDE81E
:104DB0001040FFF719BF000070B50849002401EB4F
:104DC000C00505EB4400417815F8140000F0E2FC42
:104DD000641CE4B2042CF4D370BD00000ED20008B1
:104DE00010B504460021FF2000F0D4FC00217C20F7
:104DF00000F0D0FC04217D2000F0CCFC09217C20B7
:104E000000F0C8FC2007010E7D2000F0C3FC00214B
:104E1000BDE810407D2000F0BDBC10B50446012166
:104E2000FF2000F0B7FC122000F010FC20F002017F
:104E30000CB141F00201BDE81040122000F0AABC04
:104E4000000110B52030C0B240F008040021FF205E
:104E500000F0A0FC00217C2000F09CFC02217D20C1
:104E600000F098FC03217C2000F094FC21467D207A
:104E700000F090FC2146BDE810407D2000F08ABC87
:104E800070B520252C4630B1012807D0032808D062
:104E900004280BD108E01825342407E01C252A2417
:104EA00004E02425162401E028250C240021FF20FD
:104EB00000F070FC00217C2000F06CFC04217D20BF
:104EC00000F068FC07217C2000F064FC20217D209C
:104ED00000F060FC29467D2000F05CFC21467D202E
:104EE00000F058FCBDE8704006217D2000F052BC67
:104EF00070B50D4604460021FF2000F04BFC042154
:104F0000E02000F047FCC4F3C701C02000F042FCE1
:104F1000C5F3C701C12000F03DFC600705F00702A2
:104F200042EA9062802000EA141111438C2000F0C4
:104F300031FC0021E02000F02DFC002070BD2DE9A7
:104F4000F04107460E46900702D00120BDE8F081EF
:104F5000980701D00220F9E794089D080021FF205E
:104F600000F018FC0421E02000F014FCE1B2512014
:104F700000F010FCE9B2522000F00CFCF9B2532012
:104F800000F008FCF1B2542000F004FC2846802513
:104F900005EA5001702000EA16100843082101EAD2
:104FA00054110143C7F302200143552000F0F2FBE6
:104FB00005EA9401572000F0EDFB0021E02000F00D
:104FC000E9FB0020C2E70000F8B50024012140F20F
:104FD000391000F053FA1026ADF8006048258DF81E
:104FE000035003204F4F8DF8020069463846FDF705
:104FF00075F910213846FDF7F4F90820ADF80000E6
:105000008DF8036069463846FDF768F9082138468F
:10501000FDF7E7F9FF20ADF800008DF80350694671
:105020004148FDF75BF94020ADF800003F4F8DF897
:10503000035069463846FDF751F940213846FDF7DF
:10504000D0F9F702ADF800708DF80360384E69466C
:105050003046FDF743F939463046FDF7C2F97F1077
:10506000ADF800708DF8035069463046FDF736F90B
:1050700039463046FDF7B5F901212E48FDF77CF998
:105080002D480025C0F88C510A2002F023FE2B4E3B
:10509000C6F8BC510A2006F5DE7602F01BFE0120A0
:1050A000306000F041FA0121FF2000F073FB802105
:1050B000122000F06FFB322002F00CFE1C2000F0EA
:1050C000C5FA4FF6FF7505EA00261D2000F0BEFA6E
:1050D00040EA0601A1F5FE40A23804D018A0FBF773
:1050E000F5F80120F8BD0A2000F0B0FA05EA002525
:1050F0000B2000F0ABFA40EA0501A1F51850423848
:1051000002D012A0FBF7E2F8134D05EB4400417802
:1051100015F8140000F03EFB641CA4B2B22CF4D3CA
:105120000020F8BD000C01400010014000140140B7
:105130000020014000023000008021420000244293
:105140004D49443A25640D0A000000004849443A9C
:1051500025640D0A0000000070D0000870B50E4DE7
:10516000002405EB4400417815F8140000F012FB10
:10517000641CA4B2082CF4D3074D0024103505EBB1
:105180004400417815F8140000F004FB641CA4B23C
:10519000072CF4D370BD0000D4D1000870B55E2593
:1051A0004126542430B102280BD003280CD0042807
:1051B00010D10CE00021FF2000F0ECFA0021C72004
:1051C0001AE065254F2405E05225662402E04225B9
:1051D0003F2671240021FF2000F0DCFA4021C72087
:1051E00000F0D8FA2946CC2000F0D4FA3146CD2080
:1051F00000F0D0FA2146CE20BDE8704000F0CABAD7
:1052000070B5820701D0012070BD8A0701D002204D
:1052100070BD84088D080021FF2000F0BBFA042136
:10522000E02000F0B7FAE1B25A2000F0B3FAE9B298
:105230005B2000F0AFFA0421C4F3012001EA9511CC
:1052400001435C2000F0A6FA0021E02000F0A2FA61
:10525000002070BD70B5074D002405EB4400417877
:1052600015F8140000F096FA641CA4B20E2CF4D3C6
:1052700070BD0000F2D1000870B5802600243546CC
:10528000072817D2DFE800F0160406080C0F1300F9
:1052900040240FE018240DE018244026C02509E022
:1052A0001824402601E01824A026402502E01824F6
:1052B0004026A6250021FF2000F06CFA00217C206A
:1052C00000F068FA21467D2000F064FA05217C2078
:1052D00000F060FA31467D2000F05CFA2946BDE816
:1052E00070407D2000F056BA2DE9F0410D4604468D
:1052F00000EB520701EB53060121FF2000F04AFAB0
:10530000032000F0A3F906F00302294600F0F000A4
:1053100062F39F010143032000F03CFAC5F38701CB
:10532000192000F037FAC6F387011A2000F032FA8C
:10533000322000F08BF907F00702214600F0C00090
:1053400062F3DF010143322000F024FAC4F3C70105
:10535000172000F01FFAC7F3C701BDE8F04118207D
:1053600000F018BA294810B5008806F017F96FF058
:105370000B0106F055FA06F001F84FF06632244BA7
:1053800005F014FE05F080FB224C606305F0F6FF8B
:10539000214A224B05F00AFE214A224B05F0A6FBCA
:1053A00005F072FB2060B0F5000F02DA00202060EB
:1053B00003E01D49884200DB21601C49206806F09B
:1053C00001F906F0CFF84FF47A7290FBF2F3184926
:1053D00030330B7090FBF2F302FB1303642293FB58
:1053E000F2F330334B702E238B7090FBF2F302FB01
:1053F00013030A2293FBF2F33033CB7090FBF2F3EA
:1054000002FB13003030087110BD00004C02002078
:1054100066660A405402002087A757CA320417C0A4
:105420008195438B6CA73040000060410000C8426A
:10543000A1F8002070470000034A516821F4404160
:10544000014351607047000000100240044A0029E7
:10545000516901D0014300E0814351617047000070
:1054600000100240044A0029D16901D0014300E044
:105470008143D1617047000000100240044A0029B6
:10548000916901D0014300E08143916170470000C0
:105490000010024030B5204A5168204B11F00C0139
:1054A00003D0042901D0082901D0036012E051681B
:1054B000536801F470114FF0020413F4803F04EBC1
:1054C000914102D053689B0301D5154B00E0134B6B
:1054D0005943016051680F2303EA1111114B5C5CC1
:1054E0000168E14041605468072505EA14241C5D09
:1054F00021FA04F48460546805EAD4241B5DD94081
:10550000C1605268032303EA9232064B1B1F9A5C68
:10551000B1FBF2F1016130BD0010024000127A00CF
:1055200000093D006400002038B501214FF490705F
:10553000FFF7A4FF4FF40055ADF8005048208DF858
:1055400003000320114C8DF8020069462046FCF749
:10555000C5FE29462046FCF744FF0820ADF80000B0
:1055600010200B4D8DF8030069462846FCF7B6FE67
:1055700008212846FCF735FF606820F47000606061
:10558000606840F44010606038BD000000200140B9
:105590000014014070B5322002F0B6FB0C4D012022
:1055A000C5F8B4010B4EC6F88C01322005F5DA754A
:1055B00006F5C67602F0A8FB00243460322002F023
:1055C000A3FB2C60BDE87040322002F09DBB0000C0
:1055D00000002442008022422DE9F047184F0024A9
:1055E000786820F470007860786840F40000786093
:1055F000DFF85090144E08254FF00108A2463220E3
:1056000002F082FBC6F88C816006040ED9F83401E2
:1056100008B1641CE4B2322002F076FBC6F88CA11B
:105620006D1E15F0FF05EAD1786820F470007860EF
:10563000786840F4401078602046BDE8F0870000AC
:1056400000200140000024420080224210B50446A0
:1056500000F022F8602000F055F8642002F054FBBE
:10566000204600F04FF8642002F04EFB00F02EF8C8
:10567000642002F049FB00F00FF8612000F042F8CE
:10568000642002F041FBFFF7A7FF0446FFF782FF0B
:1056900000F01CF8204610BD70B50A4E0120C6F877
:1056A000B401094DC5F88C01322005F5C67506F523
:1056B000DA7602F029FB00243460322002F024FB69
:1056C0002C6070BD000024420080224270B50B4C5B
:1056D0000020C4F8B401322004F5DA7402F014FB9F
:1056E00007480125C0F88C51322002F00DFB2560DF
:1056F000BDE87040322002F007BB000000002442E9
:10570000008022422DE9F04700241F4E1F4F05461E
:10571000A0464FF00109280601D5484600E0404662
:10572000C6F8B4016806050E322002F0EDFAC7F89B
:105730008C91322002F0E8FAC7F88C81641CE4B244
:10574000082CE8D3124C606820F470006060606838
:1057500040F400006060322002F0D6FAC7F88C9165
:10576000322002F0D1FAD6F8340100B10120C7F896
:105770008C81616821F470016160616841F44011BD
:105780006160BDE8F08700000000244200802242F2
:105790000020014070B50D4606460024FFF77CFF4F
:1057A0006020FFF7AFFF00B10124642002F0ACFAE3
:1057B0003046FFF7A7FF00B10124642002F0A4FAED
:1057C0002846FFF79FFF00B10124FFF77FFF204627
:1057D00070BD00002DE9FC4100260096354601967B
:1057E00000B102251B484069800102D50E20BDE8AA
:1057F000FC81194C6946208980B2FCF7D3FC002853
:10580000F5D10198400322D52089144C00044FF0B3
:10581000400820603720C4E901084FF48067204623
:10582000C4E9036700F090F83720FCF711F900286D
:10583000DDD10620C4F80880C4E90050C4E903673C
:10584000204600F081F80620FCF702F9CFE725207A
:10585000CDE700000080014044000020B802002095
:105860000149886370470000008001400149C1F888
:10587000A000704700003042034A516821F0FF0148
:1058800001435160704700000080014001490860F9
:10589000704700008C05304210B5094902684A6221
:1058A00042688A62CA6AD0E902342343D0E90440DC
:1058B000044322F0F70223431343CB6210BD0000E0
:1058C0000080014006480021016041608160C160A4
:1058D00041628162C162034A8263C1637047000012
:1058E00000800140FF07C000034A01460020526BC0
:1058F0000A4200D001207047008001400248006841
:1059000000F00300704700000080014000F06CBB15
:1059100030B5094B5A6847F6FF618A43017D8468B8
:10592000C568214344682C4321430468006921432E
:1059300001431143596030BD008001400148D0F857
:10594000800070470080014010B5084902688A60F5
:10595000CA68D0E901342343D0E9034004436FF31C
:105960000A0223431343CB6010BD000000800140B6
:1059700004490A6822F003020A600A6802430A60C6
:1059800070470000008001400149C1F88000704765
:1059900000800140F0B50F4604468BB0154601214A
:1059A0000220FFF753FD114E3046FCF71BF9002192
:1059B0003046FCF70BF90E4880218DE83100B8081D
:1059C00003900020CDE90401890006918900CDE90A
:1059D00007108900CDE9091069463046FCF774F9D3
:1059E00000213046FCF7F2F80BB0F0BD4404024051
:1059F0008080014010B51049044600200978032931
:105A000006D019B1012901D0022902D1022C01D3FB
:105A1000272010BDE0B2FFF7DDFE0028F9D10749CD
:105A20004A6822F4C0524A604A68A3B242EAC322DA
:105A30004A604A684A6010BD44000020008001406E
:105A40002DE9F0478249DFF80CA24FF0000C0B78EB
:105A500080F856300989A0F85410DAF800104FF099
:105A600001090A0E95090570C2F38305457002F01D
:105A7000030282700A0CC2700A0A02714171DAF8DC
:105A80000420110E0C01C2F3074144EA111401F085
:105A90000F08C480C2F3072180F80880CC09447243
:105AA000C1F380148472C1F34014C472C1F30014B2
:105AB0000473544680F80DC0A468260EC4F307454D
:105AC000C4F3072733B1012B04D0032B02D0022BE0
:105AD00030D03EE08907090DD2B241EA820141EAA5
